{
  "transactions": [
    {
      "hash": "0xed3979015f2e942711b534ad2a81f25f2e699bf9795b09b1db7e2894a43977aa",
      "transactionType": "CALL",
      "contractName": null,
      "contractAddress": "0x779877a7b0d9e8603169ddbd7836e478b4624789",
      "function": "transfer(address,uint256)",
      "arguments": [
        "0x9DdfaCa8183c41ad55329BdeeD9F6A8d53168B1B",
        "3000000000000000000"
      ],
      "transaction": {
        "from": "0xc676d275649252c616b838aaa0d18145805a1fc9",
        "to": "0x779877a7b0d9e8603169ddbd7836e478b4624789",
        "gas": "0xba74",
        "value": "0x0",
        "input": "0xa9059cbb0000000000000000000000009ddfaca8183c41ad55329bdeed9f6a8d53168b1b00000000000000000000000000000000000000000000000029a2241af62c0000",
        "nonce": "0x8",
        "chainId": "0xaa36a7"
      },
      "additionalContracts": [],
      "isFixedGasLimit": false
    }
  ],
  "receipts": [
    {
      "status": "0x1",
      "cumulativeGasUsed": "0xf4014e",
      "logs": [
        {
          "address": "0x779877a7b0d9e8603169ddbd7836e478b4624789",
          "topics": [
            "0xddf252ad1be2c89b69c2b068fc378daa952ba7f163c4a11628f55a4df523b3ef",
            "0x000000000000000000000000c676d275649252c616b838aaa0d18145805a1fc9",
            "0x0000000000000000000000009ddfaca8183c41ad55329bdeed9f6a8d53168b1b"
          ],
          "data": "0x00000000000000000000000000000000000000000000000029a2241af62c0000",
          "blockHash": "0x4513fef924f443c741fbf97d3a015f0bca406222465754b90c1f722637b44657",
          "blockNumber": "0x721f75",
          "transactionHash": "0xed3979015f2e942711b534ad2a81f25f2e699bf9795b09b1db7e2894a43977aa",
          "transactionIndex": "0x48",
          "logIndex": "0xc1",
          "removed": false
        }
      ],
      "logsBloom": "0x00000004000000000000000000000000000000000000000000000000000000000000000000000000000000000000000000000000000000000000100000000000000000000000000000000008000000000000000000000000000000000000000000000000000000000000000000000000000000000000000000000010000000000000000000000000000000000000800000000000000000000000000000000000000000000000000000000000010000000000000000000000000004002000000008000002000000000000000000000000000000000000000100000000000000000010000000000000000000000000000000000000000000000000000000000000",
      "type": "0x2",
      "transactionHash": "0xed3979015f2e942711b534ad2a81f25f2e699bf9795b09b1db7e2894a43977aa",
      "transactionIndex": "0x48",
      "blockHash": "0x4513fef924f443c741fbf97d3a015f0bca406222465754b90c1f722637b44657",
      "blockNumber": "0x721f75",
      "gasUsed": "0x86fe",
      "effectiveGasPrice": "0x17d5103f",
      "from": "0xc676d275649252c616b838aaa0d18145805a1fc9",
      "to": "0x779877a7b0d9e8603169ddbd7836e478b4624789",
      "contractAddress": null
    }
  ],
  "libraries": [],
  "pending": [],
  "returns": {},
  "timestamp": 1736731166,
  "chain": 11155111,
  "commit": "478231c"
}